{
  "contractName": "Goalify",
  "abi": [
    {
      "inputs": [],
      "payable": false,
      "stateMutability": "nonpayable",
      "type": "constructor"
    },
    {
      "constant": true,
      "inputs": [],
      "name": "admin",
      "outputs": [
        {
          "internalType": "address",
          "name": "",
          "type": "address"
        }
      ],
      "payable": false,
      "stateMutability": "view",
      "type": "function"
    },
    {
      "constant": true,
      "inputs": [],
      "name": "goalId",
      "outputs": [
        {
          "internalType": "uint256",
          "name": "",
          "type": "uint256"
        }
      ],
      "payable": false,
      "stateMutability": "view",
      "type": "function"
    },
    {
      "constant": true,
      "inputs": [
        {
          "internalType": "uint256",
          "name": "",
          "type": "uint256"
        }
      ],
      "name": "goals",
      "outputs": [
        {
          "internalType": "uint256",
          "name": "id",
          "type": "uint256"
        },
        {
          "internalType": "string",
          "name": "goalStatement",
          "type": "string"
        },
        {
          "internalType": "uint256",
          "name": "betSize",
          "type": "uint256"
        },
        {
          "internalType": "uint256",
          "name": "pot",
          "type": "uint256"
        },
        {
          "internalType": "uint256",
          "name": "start",
          "type": "uint256"
        },
        {
          "internalType": "uint256",
          "name": "duration",
          "type": "uint256"
        },
        {
          "internalType": "uint256",
          "name": "end",
          "type": "uint256"
        },
        {
          "internalType": "address payable",
          "name": "staker",
          "type": "address"
        },
        {
          "internalType": "address payable",
          "name": "sponsor",
          "type": "address"
        },
        {
          "internalType": "address payable",
          "name": "judge",
          "type": "address"
        },
        {
          "internalType": "enum Goalify.State",
          "name": "state",
          "type": "uint8"
        },
        {
          "internalType": "enum Goalify.Outcome",
          "name": "outcome",
          "type": "uint8"
        },
        {
          "internalType": "uint256",
          "name": "tries",
          "type": "uint256"
        }
      ],
      "payable": false,
      "stateMutability": "view",
      "type": "function"
    },
    {
      "constant": false,
      "inputs": [
        {
          "internalType": "string",
          "name": "_statement",
          "type": "string"
        },
        {
          "internalType": "uint256",
          "name": "_betSize",
          "type": "uint256"
        },
        {
          "internalType": "uint256",
          "name": "_duration",
          "type": "uint256"
        },
        {
          "internalType": "address payable",
          "name": "_sponsor",
          "type": "address"
        },
        {
          "internalType": "address payable",
          "name": "_judge",
          "type": "address"
        }
      ],
      "name": "createGoal",
      "outputs": [],
      "payable": true,
      "stateMutability": "payable",
      "type": "function"
    },
    {
      "constant": false,
      "inputs": [
        {
          "internalType": "uint256",
          "name": "_goalId",
          "type": "uint256"
        }
      ],
      "name": "bet",
      "outputs": [],
      "payable": true,
      "stateMutability": "payable",
      "type": "function"
    },
    {
      "constant": false,
      "inputs": [
        {
          "internalType": "uint256",
          "name": "_goalId",
          "type": "uint256"
        },
        {
          "internalType": "uint256",
          "name": "decision",
          "type": "uint256"
        }
      ],
      "name": "approve",
      "outputs": [
        {
          "internalType": "bool",
          "name": "",
          "type": "bool"
        }
      ],
      "payable": false,
      "stateMutability": "nonpayable",
      "type": "function"
    }
  ],
  "bytecode": "0x608060405234801561001057600080fd5b50600560008190555033600160006101000a81548173ffffffffffffffffffffffffffffffffffffffff021916908373ffffffffffffffffffffffffffffffffffffffff160217905550611402806100696000396000f3fe6080604052600436106100555760003560e01c806304f702141461005a5780635d35a3d91461008557806361449ca2146100e25780637365870b1461028a578063936f659e146102b8578063f851a44014610385575b600080fd5b34801561006657600080fd5b5061006f6103dc565b6040518082815260200191505060405180910390f35b34801561009157600080fd5b506100c8600480360360408110156100a857600080fd5b8101908080359060200190929190803590602001909291905050506103e2565b604051808215151515815260200191505060405180910390f35b3480156100ee57600080fd5b5061011b6004803603602081101561010557600080fd5b8101908080359060200190929190505050610680565b604051808e8152602001806020018d81526020018c81526020018b81526020018a81526020018981526020018873ffffffffffffffffffffffffffffffffffffffff1673ffffffffffffffffffffffffffffffffffffffff1681526020018773ffffffffffffffffffffffffffffffffffffffff1673ffffffffffffffffffffffffffffffffffffffff1681526020018673ffffffffffffffffffffffffffffffffffffffff1673ffffffffffffffffffffffffffffffffffffffff1681526020018560038111156101e957fe5b60ff1681526020018460018111156101fd57fe5b60ff16815260200183815260200182810382528e818151815260200191508051906020019080838360005b83811015610243578082015181840152602081019050610228565b50505050905090810190601f1680156102705780820380516001836020036101000a031916815260200191505b509e50505050505050505050505050505060405180910390f35b6102b6600480360360208110156102a057600080fd5b81019080803590602001909291905050506107f8565b005b610383600480360360a08110156102ce57600080fd5b81019080803590602001906401000000008111156102eb57600080fd5b8201836020820111156102fd57600080fd5b8035906020019184600183028401116401000000008311171561031f57600080fd5b90919293919293908035906020019092919080359060200190929190803573ffffffffffffffffffffffffffffffffffffffff169060200190929190803573ffffffffffffffffffffffffffffffffffffffff169060200190929190505050610caa565b005b34801561039157600080fd5b5061039a610e8a565b604051808273ffffffffffffffffffffffffffffffffffffffff1673ffffffffffffffffffffffffffffffffffffffff16815260200191505060405180910390f35b60035481565b6000806002600085815260200190815260200160002090508060090160009054906101000a900473ffffffffffffffffffffffffffffffffffffffff1673ffffffffffffffffffffffffffffffffffffffff163373ffffffffffffffffffffffffffffffffffffffff16146104bf576040517f08c379a00000000000000000000000000000000000000000000000000000000081526004018080602001828103825260168152602001807f6f6e6c79206a756467652063616e20617070726f76650000000000000000000081525060200191505060405180910390fd5b60018314806104ce5750600283145b610523576040517f08c379a000000000000000000000000000000000000000000000000000000000815260040180806020018281038252603281526020018061139c6032913960400191505060405180910390fd5b6001600381111561053057fe5b8160090160149054906101000a900460ff16600381111561054d57fe5b146105c0576040517f08c379a00000000000000000000000000000000000000000000000000000000081526004018080602001828103825260188152602001807f7374617465206d75737420626520696e2042455454494e47000000000000000081525060200191505060405180910390fd5b60018314156106165760008160090160156101000a81548160ff021916908360018111156105ea57fe5b021790555060028160090160146101000a81548160ff0219169083600381111561061057fe5b02179055505b600283141561066c5760018160090160156101000a81548160ff0219169083600181111561064057fe5b021790555060028160090160146101000a81548160ff0219169083600381111561066657fe5b02179055505b61067584610eb0565b600191505092915050565b6002602052806000526040600020600091509050806000015490806001018054600181600116156101000203166002900480601f0160208091040260200160405190810160405280929190818152602001828054600181600116156101000203166002900480156107325780601f1061070757610100808354040283529160200191610732565b820191906000526020600020905b81548152906001019060200180831161071557829003601f168201915b5050505050908060020154908060030154908060040154908060050154908060060154908060070160009054906101000a900473ffffffffffffffffffffffffffffffffffffffff16908060080160009054906101000a900473ffffffffffffffffffffffffffffffffffffffff16908060090160009054906101000a900473ffffffffffffffffffffffffffffffffffffffff16908060090160149054906101000a900460ff16908060090160159054906101000a900460ff169080600a015490508d565b806002600082815260200190815260200160002060020154600202600260008381526020019081526020016000206003015410610880576040517f08c379a000000000000000000000000000000000000000000000000000000000815260040180806020018281038252604581526020018061129d6045913960600191505060405180910390fd5b8160006002600085815260200190815260200160002090508060070160009054906101000a900473ffffffffffffffffffffffffffffffffffffffff1673ffffffffffffffffffffffffffffffffffffffff163373ffffffffffffffffffffffffffffffffffffffff16148061094557508060080160009054906101000a900473ffffffffffffffffffffffffffffffffffffffff1673ffffffffffffffffffffffffffffffffffffffff163373ffffffffffffffffffffffffffffffffffffffff16145b61099a576040517f08c379a00000000000000000000000000000000000000000000000000000000081526004018080602001828103825260238152602001806113796023913960400191505060405180910390fd5b80600201543410156109f7576040517f08c379a000000000000000000000000000000000000000000000000000000000815260040180806020018281038252603e81526020018061133b603e913960400191505060405180910390fd5b60006003811115610a0457fe5b8160090160149054906101000a900460ff166003811115610a2157fe5b1480610a54575060016003811115610a3557fe5b8160090160149054906101000a900460ff166003811115610a5257fe5b145b610aa9576040517f08c379a00000000000000000000000000000000000000000000000000000000081526004018080602001828103825260238152602001806113186023913960400191505060405180910390fd5b62015180816004015401421115610bfd573373ffffffffffffffffffffffffffffffffffffffff166108fc349081150290604051600060405180830381858888f19350505050158015610b00573d6000803e3d6000fd5b5060026000858152602001908152602001600020600080820160009055600182016000610b2d91906111af565b600282016000905560038201600090556004820160009055600582016000905560068201600090556007820160006101000a81549073ffffffffffffffffffffffffffffffffffffffff02191690556008820160006101000a81549073ffffffffffffffffffffffffffffffffffffffff02191690556009820160006101000a81549073ffffffffffffffffffffffffffffffffffffffff02191690556009820160146101000a81549060ff02191690556009820160156101000a81549060ff0219169055600a82016000905550505b8060020154816003016000828254019250508190555060018160090160146101000a81548160ff02191690836003811115610c3457fe5b021790555050600060026000838152602001908152602001600020600201549050600081340390503373ffffffffffffffffffffffffffffffffffffffff166108fc829081150290604051600060405180830381858888f19350505050158015610ca2573d6000803e3d6000fd5b505050505050565b620151808311610d22576040517f08c379a00000000000000000000000000000000000000000000000000000000081526004018080602001828103825260208152602001807f476f616c206d757374206265206174206c65617374203120646179206c6f6e6781525060200191505060405180910390fd5b6000600260006003548152602001908152602001600020905060035481600001819055508686826001019190610d599291906111f7565b508481600201819055508381600501819055504281600401819055508342018160060181905550338160070160006101000a81548173ffffffffffffffffffffffffffffffffffffffff021916908373ffffffffffffffffffffffffffffffffffffffff160217905550828160080160006101000a81548173ffffffffffffffffffffffffffffffffffffffff021916908373ffffffffffffffffffffffffffffffffffffffff160217905550818160090160006101000a81548173ffffffffffffffffffffffffffffffffffffffff021916908373ffffffffffffffffffffffffffffffffffffffff16021790555060008160090160146101000a81548160ff02191690836003811115610e6a57fe5b021790555060036000815480929190600101919050555050505050505050565b600160009054906101000a900473ffffffffffffffffffffffffffffffffffffffff1681565b600060026000838152602001908152602001600020905060006001811115610ed457fe5b8160090160159054906101000a900460ff166001811115610ef157fe5b1480610f235750600180811115610f0457fe5b8160090160159054906101000a900460ff166001811115610f2157fe5b145b610f78576040517f08c379a00000000000000000000000000000000000000000000000000000000081526004018080602001828103825260368152602001806112e26036913960400191505060405180910390fd5b60026003811115610f8557fe5b8160090160149054906101000a900460ff166003811115610fa257fe5b14611015576040517f08c379a00000000000000000000000000000000000000000000000000000000081526004018080602001828103825260198152602001807f7374617465206d75737420626520696e20415050524f5645440000000000000081525060200191505060405180910390fd5b6000600181111561102257fe5b8160090160159054906101000a900460ff16600181111561103f57fe5b14156110d0578060070160009054906101000a900473ffffffffffffffffffffffffffffffffffffffff1673ffffffffffffffffffffffffffffffffffffffff166108fc60646000546064038460030154028161109857fe5b049081150290604051600060405180830381858888f193505050501580156110c4573d6000803e3d6000fd5b50600081600301819055505b6001808111156110dc57fe5b8160090160159054906101000a900460ff1660018111156110f957fe5b1415611185578060080160009054906101000a900473ffffffffffffffffffffffffffffffffffffffff1673ffffffffffffffffffffffffffffffffffffffff166108fc82600201549081150290604051600060405180830381858888f1935050505015801561116d573d6000803e3d6000fd5b50806002015481600301600082825403925050819055505b60038160090160146101000a81548160ff021916908360038111156111a657fe5b02179055505050565b50805460018160011615610100020316600290046000825580601f106111d557506111f4565b601f0160209004906000526020600020908101906111f39190611277565b5b50565b828054600181600116156101000203166002900490600052602060002090601f016020900481019282601f1061123857803560ff1916838001178555611266565b82800160010185558215611266579182015b8281111561126557823582559160200191906001019061124a565b5b5090506112739190611277565b5090565b61129991905b8082111561129557600081600090555060010161127d565b5090565b9056fe63616e6e6f7420626574206d6f7265207468616e20322074696d65732c20617320706f742073697a652069732063617070656420617420646f75626c652062657453697a656a75646765206d757374206861766520676976656e20617070726f76616c20666f72205355434345455353206f72204641494c5552457374617465206d75737420626520696e2043524541544544206f722042455454494e477374616b657220616e642073706f6e736f72206d7573742062657420616d6f756e742067726561746572206f7220657175616c20746f2062657453697a656f6e6c79207374616b657220616e642073706f6e736f722063616e206465706f7369746465636973696f6e20697320656974686572203120666f72205355434345455353206f72203220666f72204641494c555245a265627a7a723158209b9f884c122961576b99b51b5469ec87ab5e8f295a6570add3c0a2c1046fc7c364736f6c63430005100032",
  "source": "pragma solidity ^0.5.4;\r\n\r\ncontract Goalify {\r\n    /* Players - sponsor, staker, and judge\r\n       Action - 1) staker will bet on himself to accomplish a goal in a specific duration of time, \r\n                2) sponsor will also bet an amount of ether on staker as extra incentive, assuming sponsor is interested in see staker succeed\r\n                3) a smart contract will lock their ethers and dictate terms of payout at end of the time duration, terms will include (goal statement, betsize, time duration)\r\n                4) at end of the period, the judge will look at the goals achieved and approve outcome. The approval and outcome will determine payout.\r\n                5) result can come out either two ways: 1) staker achieves the goal and wins his original stake fund + amount staked from sponsor or 2) staker fail to achieve his/her goal, loses his stake, sponsor gets full refund upon failure\r\n                6) BUT staker has a chance to get his money back by placing another bet on himself to win his money back (Still under Developement)\r\n                7) Staker is allowed two tries to get his/her money back, if still failure afte two tries, the entire lost amount will donate to Golify Dapp. The money will then be used to help other stakers to achieve their goals (Still under Developement).\r\n    \r\n       Step 1) Create Goal\r\n       Step 2) Bet on Goal - sponsor and stakers will bet, \r\n       Step 3) Approve Outcome - judge will approve outcome as succcess or failure\r\n       Step 4) Distribute - judge approves or disapproves, sponsor and staker re-create the Bet\r\n \r\n       Variables - 3 players / addresses; time - start, end, eduration; money - pot, betsize, dappFees; goal statement; tries; State enum; Outcome enum */\r\n    \r\n    enum State {CREATED, BETTING, APPROVED, CLOSED}\r\n    enum Outcome {SUCCEESS, FAILURE}\r\n\r\n    uint dappFee;\r\n    address public admin;\r\n    \r\n    struct Goal {\r\n        uint id;\r\n        string goalStatement;\r\n        uint betSize;\r\n        uint pot;\r\n        uint start;\r\n        uint duration;\r\n        uint end;\r\n        address payable staker;\r\n        address payable sponsor;\r\n        address payable judge;\r\n        State state;\r\n        Outcome outcome;\r\n        uint tries;\r\n    }\r\n    \r\n    mapping(uint => Goal) public goals;\r\n    uint public goalId; // number of attempts / tries on goal\r\n    \r\n    constructor() public {\r\n        // require(fee > 0 && fee < 100, \"fee is a percentage that should be between 1% to 99%\");\r\n        dappFee = 5; // Dapp will take 5% of stake and sponsor's bet. staker will pay sponsor fee. \r\n        admin = msg.sender;\r\n    }\r\n    \r\n    function createGoal(string calldata _statement, uint _betSize, uint _duration, address payable _sponsor, address payable _judge) external payable {\r\n        require(_duration > 86400, \"Goal must be at least 1 day long\"); // 86400 second = 24 hours / one day\r\n        Goal storage goal = goals[goalId];\r\n        goal.id = goalId;\r\n        goal.goalStatement = _statement;\r\n        goal.betSize = _betSize;\r\n        goal.duration = _duration;\r\n        goal.start = now;\r\n        goal.end = now + _duration;\r\n\r\n        goal.staker = msg.sender;\r\n        goal.sponsor = _sponsor;\r\n        goal.judge = _judge;\r\n        \r\n        goal.state = State.CREATED;\r\n        goalId++;\r\n    }\r\n    \r\n    function bet(uint _goalId) external payable capBet(_goalId) refundExcess(_goalId) {\r\n        Goal storage goal = goals[_goalId];\r\n        // require((now - goal.start) < 86400, \r\n        require(msg.sender == goal.staker || msg.sender == goal.sponsor, \"only staker and sponsor can deposit\");\r\n        require(msg.value >= goal.betSize, \"staker and sponsor must bet amount greater or equal to betSize\");\r\n        require(goal.state == State.CREATED || goal.state == State.BETTING, \"state must be in CREATED or BETTING\");\r\n        \r\n        if(now > (goal.start + 86400)) {msg.sender.transfer(msg.value); delete goals[_goalId];} // \"must bet within 24 hours of goal creation, otherwise goal will self delete\");\r\n        \r\n        goal.pot += goal.betSize;\r\n        goal.state = State.BETTING;\r\n    }\r\n    \r\n    function approve(uint _goalId, uint decision) external returns(bool){\r\n        Goal storage goal = goals[_goalId];\r\n        require(msg.sender == goal.judge, \"only judge can approve\");\r\n        require(decision == 1 || decision == 2, 'decision is either 1 for SUCCEESS or 2 for FAILURE');\r\n        require(goal.state == State.BETTING, \"state must be in BETTING\");\r\n        \r\n        if(decision == 1) {goal.outcome = Outcome.SUCCEESS; goal.state = State.APPROVED;}\r\n        if(decision == 2) {goal.outcome = Outcome.FAILURE; goal.state = State.APPROVED;}\r\n        \r\n        distribute(_goalId);\r\n        \r\n        return true;\r\n    }\r\n    \r\n    function distribute(uint _goalId) internal {\r\n        Goal storage goal = goals[_goalId];\r\n        require(goal.outcome == Outcome.SUCCEESS || goal.outcome == Outcome.FAILURE, \"judge must have given approval for SUCCEESS or FAILURE\");\r\n        require(goal.state == State.APPROVED, \"state must be in APPROVED\");\r\n        if(goal.outcome == Outcome.SUCCEESS) { // SUCCEESS\r\n            goal.staker.transfer(goal.pot * (100 - dappFee) / 100); //staker wins his deposit + sponsor money;\r\n            goal.pot = 0;\r\n        }\r\n        if(goal.outcome == Outcome.FAILURE) { //FAILURE\r\n            goal.sponsor.transfer(goal.betSize); //sponsor get his money back, staker loses his stake\r\n            goal.pot -= goal.betSize;\r\n        }\r\n        \r\n        goal.state = State.CLOSED;\r\n    }\r\n    \r\n    modifier refundExcess(uint _goalId) {\r\n        _;\r\n        uint _betSize = goals[_goalId].betSize;\r\n        uint refund = msg.value - _betSize;\r\n        msg.sender.transfer(refund);\r\n    }\r\n    \r\n    modifier capBet(uint _goalId) {\r\n        require(goals[_goalId].pot < (2 * goals[_goalId].betSize), \"cannot bet more than 2 times, as pot size is capped at double betSize\");\r\n        _;\r\n    }\r\n}\r\n    ",
  "sourcePath": "C:/Users/admin/Documents/GitHub/Goalify/contracts/Goalify.sol",
  "compiler": {
    "name": "solc",
    "version": "0.5.16+commit.9c3226ce.Emscripten.clang"
  },
  "schemaVersion": "3.2.3",
  "updatedAt": "2020-11-24T11:22:41.927Z",
  "networkType": "ethereum",
  "devdoc": {
    "methods": {}
  },
  "userdoc": {
    "methods": {}
  }
}